S01600004F7064726163687420332E422E332E73726563B5
S113000045C0000053C0000051C000004FC00000B4
S11300104DC000004BC0000049C0000047C00000B4
S113002045C000008BC0000042C000003FC000007B
S11300303DC000003BC0000039C0000037C00000D4
S113004035C0000033C0000031C000002FC00000E4
S11300502DC000002BC0000029C0000027C00000F4
S113006025C0000023C0000021C000001FC0000004
S11300701DC000001BC0000019C0000017C0000014
S113008015C0000013C0000011C0000011241FBEE1
S1130090CFEFD0E1DEBFCDBF21E0A0E0B1E001C0F1
S11300A01D92A430B207E1F799D0A3C0A9CF1F9243
S11300B00F920FB60F9211248F939F9388EF84BDF4
S11300C080910201909103010F9791F480910001B6
S11300D090910101892B61F481E090E090930101FA
S11300E080930001109203011092020112BA16C00B
S11300F08091020190910301499781F4809100015C
S113010090910101019751F41092010110920001A4
S1130110109203011092020180E882BB80910201D7
S113012090910301019690930301809302019F91A2
S11301308F910F900FBE0F901F9018951F920F92E2
S11301400FB60F9211248F939F9388EF84BD8091F3
S11301500201909103010F9791F480910001909115
S11301600101892B61F481E090E090930101809377
S11301700001109203011092020112BA16C080917C
S1130180020190910301499781F4809100019091BB
S11301900101019751F41092010110920001109293
S11301A003011092020180E882BB809102019091C8
S11301B00301019690930301809302019F918F9113
S11301C00F900FBE0F901F90189588EF84BD87B7CE
S11301D0806487BF789485E085BD089580E881BBFD
S11301E082BBF3DF8FEC97E00197F1F700C00000CA
S10901F0F9CFF894FFCFE3
S9030000FC
