S01600004F7064726163687420312E422E362E73726563B4
S113000045C0000060C000005EC000005CC000008D
S11300105AC0000058C0000056C0000054C0000080
S113002052C0000050C000004EC000004CC0000090
S11300304AC0000048C0000046C0000044C00000A0
S113004042C0000040C000003EC000003CC00000B0
S11300503AC0000038C0000036C0000034C00000C0
S113006032C0000030C000002EC000002CC00000D0
S11300702AC0000028C0000026C0000024C00000E0
S113008022C0000020C000001EC0000011241FBEBA
S1130090CFEFD0E1DEBFCDBF11E0A0E0B1E0E6EDEF
S11300A0F1E000E00BBF02C007900D92AE30B10743
S11300B0D9F721E0AEE0B1E001C01D92AF30B20744
S11300C0E1F782D086C09CCFCF93DF93C82FD0E0D6
S11300D080910E019E01280F311DF901EE0FFF1FC3
S11300E0EE0FFF1FEE0FFF1FE21BF30BE050FF4F5D
S11300F00480F581E02D309709F00995989B13C091
S113010080910E019E01280F311DF901EE0FFF1F92
S1130110EE0FFF1FEE0FFF1FE21BF30BE050FF4F2C
S1130120868180930E0180910E019E01280F311D5E
S1130130F901EE0FFF1FEE0FFF1FEE0FFF1FE21B73
S1130140F30BE050FF4F0190F081E02D309709F060
S1130150099580910E01C80FD11DFE01EE0FFF1FFE
S1130160EE0FFF1FEE0FFF1FEC1BFD0BE050FF4FC8
S11301700280F381E02D309709F00995DF91CF914A
S1130180089520E030E008C0EFECF7E03197F1F794
S113019000C000002F5F3F4F28173907ACF30895C4
S11301A080E882BB88EE93E0ECDF12BA88EE93E03D
S11301B0E8CF089580E882BB8AEF90E0E2DF12BACC
S11301C08AEF90E0DECF089580E881BB80E07CDF99
S10901D0FDCFF894FFCFFF
S11101D6D0000000000001DA0000000000006C
S9030000FC
