S014000045696E646F706472616368742E737265633B
S11300004DC0000012C1000066C0000064C00000C2
S113001062C0000060C000005EC000005CC0000060
S11300205AC0000058C0000056C0000054C0000070
S113003052C0000050C000004EC000004CC0000080
S11300404AC0000048C0000046C0000044C0000090
S113005042C0000040C000003EC000003CC00000A0
S11300603AC0000038C0000036C0000034C00000B0
S113007032C0000030C000002EC000002CC00000C0
S11300802AC0000028C0000026C00000DA00DD00FD
S1130090E000E300E600E900EC00EF0011241FBEDD
S11300A0CFEFD0E1DEBFCDBF11E0A0E0B1E0E8E5E5
S11300B0F4E000E00BBF02C007900D92A431B10739
S11300C0D9F721E0A4E1B1E001C01D92A631B20745
S11300D0E1F726D1BFC194CF8BB380648BBB8FEC87
S11300E097E00197F1F700C000008BB38F7B8BBBC7
S11300F08FEC97E00197F1F700C000000895CF93CB
S11301008FEF84BB8ABB15BA1BBAC0E2C5BBE4DF60
S1130110C5BBE2DF80E885BBDFDF15BADDDF80EF3A
S113012085BBDADF15BAD8DF80E685BBD5DFCF9192
S11301300895CF93C82F85BB8BB380618BBBCCDF75
S1130140C295C07FC5BB8BB380618BBBC5DFCF912C
S11301500895CF93DF93EC0102C0EBDF21968881F1
S11301608111FBCFDF91CF910895CF93C82F85BB29
S11301708BB38F7E8BBBB0DFC295C07FC5BB8BB307
S11301808F7E8BBBA9DFCF91089581E0EEDF8FE9ED
S11301909FE00197F1F700C0000080E8E6CF0895E2
S11301A0E0911401F0911501E830F105D8F4EA5B0F
S11301B0FF4F0AC181E083B916C083E083B913C03D
S11301C082E083B910C086E083B90DC084E083B9AE
S11301D00AC08CE083B907C088E083B904C089E011
S11301E083B901C013B8809114019091150101964F
S11301F09093150180931401089724F0109215012F
S1130200109214018091140190911501992334F4F2
S113021087E090E090931501809314018FEC97E0B0
S11302200197F1F700C0000008951F920F920FB6D6
S11302300F9211248F939F9380910201813041F496
S113024082E080936A001DBC1CBC109202010CC0A9
S113025083E080936A008CB59DB5909301018093EF
S1130260000181E0809302019F918F910F900FBE56
S11302700F901F90189520E030E006C042E04A95A8
S1130280F1F700C02F5F3F4F28173907B8F30895DF
S113029020E030E008C0EFECF7E03197F1F700C060
S11302A000002F5F3F4F28173907A8F30895CF9315
S11302B0DF93C5E6D0E018828AE090E0DCDF81E0DD
S11302C08883DF91CF9108950F931F93CF93DF938A
S11302D000D000D01F92CDB7DEB7E9DF80910001D6
S11302E0909101012AEA289F8001299F100D112471
S11302F04CDF4AE050E0BE016F5F7F4FC8016DD014
S1130300CE01019626DF88EC90E0C2DF0F900F90BB
S11303100F900F900F90DF91CF911F910F9108953F
S11303208FEF8093640011BA83E080936A0089B7E9
S1130330816089BF1FBC8CE08EBD7894E0DE8FE1C4
S11303409EE40197F1F700C000001FDFC0E0D0E099
S113035008C026DF8FEC97E00197F1F700C000009A
S11303602196C11590E1D907A4F3C0E0D0E0009B29
S113037007C0CD2B19F0C0E0D0E002C0C1E0D0E04E
S1130380029B07C00DDF8FEC97E00197F1F700C0E7
S11303900000019B07C004DF8FEC97E00197F1F7A1
S11303A000C00000209711F08FDF04C0EEDE86E06D
S11303B091E0CFDE9FEF20E782E091502040804023
S11303C0E1F700C00000D3CFEE0FFF1F0024001C94
S11303D00BBE0790F691E02D09944532510518F4AF
S11303E0423008F004C0FB011082CB010895BB2702
S11303F04A3031F4992322F4BDE2909581959F4FC0
S113040001C0BB27FB015527AA27880F991FAA1FE4
S1130410A41710F0A41B83955051B9F7A05DAA331B
S113042008F0A95DA193009779F7B111B1931192E6
S1130430CB0100C0DC01FC01672F71917723E1F748
S1130440329704C07C916D9370836291AE17BF079D
S10B0450C8F30895F894FFCFEE
S11304587D0001256400536F6E6172206973206FFB
S107046866660000C0
S9030000FC
