S014000045696E646F706472616368742E737265633B
S113000045C00000E6C0000056C0000054C0000017
S113001052C0000050C000004EC000004CC00000A0
S11300204AC0000048C0000046C0000044C00000B0
S113003042C0000040C000003EC000003CC00000C0
S11300403AC0000038C0000036C0000034C00000D0
S113005032C0000030C000002EC000002CC00000E0
S11300602AC0000028C0000026C0000024C00000F0
S113007022C0000020C000001EC000001CC0000000
S11300801AC0000018C0000016C0000011241FBED2
S1130090CFEFD0E1DEBFCDBF11E0A0E0B1E0E4E2FC
S11300A0F3E000E00BBF02C007900D92A430B1074B
S11300B0D9F7E1D035C1A4CF8BB380648BBB8FEC6F
S11300C097E00197F1F700C000008BB38F7B8BBBE7
S11300D08FEC97E00197F1F700C000000895CF93EB
S11300E08FEF84BB8ABB15BA1BBAC0E2C5BBE4DF81
S11300F0C5BBE2DF80E885BBDFDF15BADDDF80EF5B
S113010085BBDADF15BAD8DF80E685BBD5DFCF91B2
S11301100895CF93C82F85BB8BB380618BBBCCDF95
S1130120C295C07FC5BB8BB380618BBBC5DFCF914C
S11301300895CF93DF93EC0102C0EBDF2196888111
S11301408111FBCFDF91CF910895CF93C82F85BB49
S11301508BB38F7E8BBBB0DFC295C07FC5BB8BB327
S11301608F7E8BBBA9DFCF91089581E0EEDF8FE90D
S11301709FE00197F1F700C0000080E8E6CF089502
S113018020E030E006C046E04A95F1F700C02F5F5A
S11301903F4F28173907B8F3089520E030E008C02E
S11301A0E7E8F3E13197F1F700C000002F5F3F4F1C
S11301B028173907A8F30895CF93DF93C5E6D0E055
S11301C018828AE090E0DCDF81E08883DF91CF91C0
S11301D008951F920F920FB60F9211248F939F933D
S11301E080910201813041F482E080936A001DBC59
S11301F01CBC109202010CC083E080936A008CB591
S11302009DB5909301018093000181E080930201E8
S11302109F918F910F900FBE0F901F9018950F9381
S11302201F93CF93DF9300D000D01F92CDB7DEB7DA
S1130230C3DF80910001909101012AEA289F800187
S1130240299F100D112491DF4AE050E0BE016F5F39
S11302507F4FC80128D0CE0101966BDF88EC90E077
S11302609CDF0F900F900F900F900F90DF91CF9124
S11302701F910F9108958FEF8093640011BA83E06A
S113028080936A0089B7816089BF1FBC8CE08EBDF2
S1130290789425DF8FE493EC0197F1F700C0000018
S11302A064DFBDDFFECF4532510518F4423008F05B
S11302B004C0FB011082CB010895BB274A3031F4FE
S11302C0992322F4BDE2909581959F4F01C0BB27ED
S11302D0FB015527AA27880F991FAA1FA41710F0FE
S11302E0A41B83955051B9F7A05DAA3308F0A95D0A
S11302F0A193009779F7B111B1931192CB0100C08A
S1130300DC01FC01672F71917723E1F7329704C078
S11303107C916D9370836291AE17BF07C8F3089503
S1070320F894FFCF7B
S10703247D00010053
S9030000FC
