S00D0000332E422E322E7372656314
S113000045C0000060C000005EC000005CC000008D
S11300105AC0000058C0000056C0000054C0000080
S113002052C0000050C00000D5C000004CC0000009
S11300304AC0000048C0000046C0000044C00000A0
S113004042C0000040C000003EC000003CC00000B0
S11300503AC0000038C0000036C0000034C00000C0
S113006032C0000030C000002EC000002CC00000D0
S11300702AC0000028C0000026C0000024C00000E0
S113008022C0000020C000001EC0000011241FBEBA
S1130090CFEFD0E1DEBFCDBF11E0A0E0B1E0E0E4FE
S11300A0F2E000E00BBF02C007900D92AC30B10744
S11300B0D9F721E0ACE0B1E001C01D92A031B20754
S11300C0E1F7B3D0BBC09CCF8BB380648BBB8FEC08
S11300D097E00197F1F700C000008BB38F7B8BBBD7
S11300E08FEC97E00197F1F700C000000895CF93DB
S11300F08FEF81BB8ABB15BA1BBAC0E2C5BBE4DF74
S1130100C5BBE2DF80E885BBDFDF15BADDDF80EF4A
S113011085BBDADF15BAD8DF80E685BBD5DFCF91A2
S11301200895CF93C82F85BB8BB380618BBBCCDF85
S1130130C295C07FC5BB8BB380618BBBC5DFCF913C
S11301400895CF93DF93EC0102C0EBDF2196888101
S11301508111FBCFDF91CF910895CF93C82F85BB39
S11301608BB38F7E8BBBB0DFC295C07FC5BB8BB317
S11301708F7E8BBBA9DFCF91089581E0EEDF8FE9FD
S11301809FE00197F1F700C0000080E8E6CF0895F2
S11301900F931F93CF93DF938C01C0E0D0E003C093
S11301A084E1DBDF2196C017D107D4F3DF91CF912F
S11301B01F910F91089520E030E008C0EFECF7E0C4
S11301C03197F1F700C000002F5F3F4F2817390720
S11301D0ACF308951F920F920FB60F9211248F93D0
S11301E09F93809100019091010184BD80910E0143
S11301F090910F01019690930F0180930E0181E07D
S113020090E090930D0180930C019F918F910F903A
S11302100FBE0F901F9018956ADF8AE090E0CBDF45
S1130220ACDF81E090E0B4CF0895F6DFA6DF82E092
S113023091E087DF8AE090E0BEDFFCCFF894FFCF47
S10F0240F6FF68656C6C6F6F6F6F000058
S9030000FC
