S01600004F7064726163687420322E422E312E73726563B8
S113000045C0000063C0000088C000004FC000006D
S11300104DC000004BC0000049C0000047C00000B4
S113002045C0000043C0000041C000003FC00000C4
S11300303DC000003BC0000039C0000037C00000D4
S113004035C0000033C0000031C000002FC00000E4
S11300502DC000002BC0000029C0000027C00000F4
S113006025C0000023C0000021C000001FC0000004
S11300701DC000001BC0000019C0000017C0000014
S113008015C0000013C0000011C0000011241FBEE1
S1130090CFEFD0E1DEBFCDBF21E0A0E0B1E001C0F1
S11300A01D92A230B207E1F761D073C0A9CF20E05E
S11300B030E008C0EFECF7E03197F1F700C0000042
S11300C02F5F3F4F28173907ACF308951F920F9203
S11300D00FB60F9211248F939F9381E090E00090CC
S11300E0000102C0880F991F0A94E2F785BB809132
S11300F00001909101010196909301018093000108
S1130100089721F410920101109200019F918F91A0
S11301100F900FBE0F901F9018951F920F920FB65D
S11301200F9211248F939F9380910001909101016C
S113013001979093010180930001892B31F487E0AA
S113014090E0909301018093000181E090E00090A1
S1130150000102C0959587950A94E2F785BB9F91AB
S11301608F910F900FBE0F901F90189580EF81BB59
S113017014BAEAE6F0E080818B60808389B78360FB
S113018089BF789482B3805882BB84EF91E08FDF7B
S1090190F9CFF894FFCF43
S9030000FC
